:0300000002008576
:03000300D22132D5
:10001300D22030246CD294740112047D74811204B2
:100023007D7404918A7F23742012048A744112041C
:100033008A746C12048A746112048A747212048AB8
:10004300746D12048A742012048A744F12048A7421
:100053006612048A746612048A742112048AD28C8A
:10006300308DFDC28DDFF9C28C7401917D9150D228
:1000730024D223C220C220C223D294C224C220C2CB
:100083002532787FE4F6D8FD12022D75890175813A
:1000930010519F51B07480917D7403918A74201222
:1000A300048A744412048A746912048A74671204F9
:1000B3008A746912048A747412048A746112048A39
:1000C300746C12048A742012048A744312048A74AE
:1000D3006C12048A746F12048A746312048A746B38
:1000E30012048A742012048A7F32D28C308DFDC2AE
:1000F3008DDFF9C221C220C223C222D29412023B55
:1001030074D012024B12025B740212024B12025B96
:1001130012023274D1514B515B516D5164514254AF
:100123001FB412005021513B74D0514B515B7408E2
:10013300514B515B513274D1514B515B516D5164F1
:100143005142B47E028029753000753100753252F8
:1001530075330175340175350175360675370075CC
:0C016300387E753900753A007E0B78304C
:10016F007900518675A885519F9150513B74D0519C
:10017F004B515B7400514B515B7E0F513274D15117
:10018F004B515B784012026DF608BE01045164803A
:10019F0002515BDEF0514271B5302167C221C2AF0F
:1001AF00B19EC2217E09783079005186C221740137
:1001BF00917D7481917D7404918AC22174201204FF
:1001CF008A745412048A746912048A746D12048A30
:1001DF00746512048A742012048A745312048A7488
:1001EF006512048A747412048A742112048A7F239C
:1001FF00D28C308DFDC28DDFF9C28C7401917D914F
:10020F0050D2AF30200FC220C2AF1209F1D2AFD2FD
:10021F0023C220D223302503120CC002017AD291BF
:10022F00D29022C290D291D290C29122D290C291FA
:10023F00C29022C290C291D290D291227F08C290D6
:10024F00339291D290DFF7C290D29122C291D29085
:10025F00C290D29122D291D290C290D290227F0896
:10026F00C290D290A29133DFF7C290D291221202A4
:10027F006D12025BF60822513B74D0514B515BE972
:0F028F00514B515BE6514B515B0809DEF7514271
:10029E00227438917D740C917D7401917D74069158
:1002AE007D227440917D7400918A7400918A74004D
:1002BE00918A7400918A7400918A7400918A7400F4
:1002CE00918A7400918A7401918A7403918A740FD1
:1002DE00918A740F918A740F918A7403918A7401B2
:1002EE00918A7400918A7408918A7410918A7400AC
:1002FE00918A7418918A7400918A7410918A740884
:10030E00918A7400918A7400918A740E918A741580
:10031E00918A7417918A7411918A740E918A74005D
:10032E00918A7400918A7400918A7401918A74037F
:10033E00918A7416918A741C918A7408918A740039
:10034E00918A7400918A740A918A741F918A741F1B
:10035E00918A741F918A740E918A7404918A740022
:10036E00918A7400918A7402918A7403918A74023C
:10037E00918A740E918A741E918A740C918A7400FB
:10038E00918A7400918A7404918A740E918A740E03
:10039E00918A740E918A741F918A7400918A7404E2
:1003AE00918A7400918A22794074CA917DE78750B0
:0703BE00913B0974C7917D1A
:1003C500E78751875B913B0974C4917DE787528725
:1003D5005AFC541F913BEC5420B4001074CD917D10
:1003E500746112048A746D12048A800E74CD917D35
:1003F500747012048A746D12048A097480917DE701
:10040500875391A6097488917DE78754913B0974B8
:100415008B917DE78755913B09748E917DE78756D2
:10042500913B302310090909E7B5520909E7B55190
:1004350004D225D22522C0E0FD54F0C4900D2593A9
:10044500918AED540F93918AD0E022748A917D743C
:100455002F918A748D917D742F918A74C6917D74C4
:100465003A918A74C9917D743A918A74C0917D7468
:1004750007918A7401918A229197F5A0C2B7C2B6F5
:10048500D2B5C2B5229197D2B7F5A0C2B6D2B5C240
:10049500B52275A0FFC2B7D2B6C2B5D2B520A7F9AD
:1004A50022C0E0B40121742012048A742A12048A3D
:1004B500745312048A747512048A746E12048A7451
:1004C5002A12048A02059BB40221742012048A743C
:1004D5002A12048A744D12048A746F12048A746E87
:0804E50012048A742A12048A31
:1004ED0002059BB40321742012048A742A12048A13
:1004FD00745412048A747512048A746512048A7411
:10050D002A12048A02059BB40420742012048A74F2
:10051D002A12048A745712048A746512048A746448
:10052D0012048A742A12048A8064B405207420127D
:10053D00048A742A12048A745412048A7468120488
:10054D008A747512048A742A12048A8041B40620B2
:10055D00742012048A742A12048A744612048A744E
:10056D007212048A746912048A742A12048A801E13
:10057D00742012048A742A12048A745312048A7421
:10058D006112048A747412048A742A12048AD0E0E7
:10059D002230B2FD7401917D7480917D7403918A36
:1005AD00742012048A747312048A746512048A7496
:1005BD007412048A742012048A746D12048A746988
:1005CD0012048A746E12048A747512048A74741279
:1005DD00048A746512048A747312048A743A1204BC
:1005ED008A74C5917DE551913B120D17C0E074C51C
:1005FD00917DD0E020931304B43C0274003093FD40
:10060D00120D09913B120D1780E220921314B4FFC5
:10061D0002743B3092FD120D09913B120D1780CCE7
:10062D0020B2C9120D09F53130B2FD7401917D74FE
:10063D0080917D7403918A742012048A747312045C
:0D064D008A746512048A747412048A742081
:10065A0012048A746812048A746F12048A747512F6
:10066A00048A747212048A747312048A743A120421
:10067A008A74C5917DE552541F913B120D17C0E053
:10068A0074C5917DD0E020931304B40D0274013037
:10069A0093FD120D09913B120D1780E2209213145B
:1006AA00B40002740C3092FD120D09913B120D1721
:1006BA0080CC20B2C9120D09F53230B2FD74019115
:1006CA007D7480917D7403918A742012048A7473F4
:1006DA0012048A746512048A747412048A742012C9
:1006EA00048A746112048A746D12048A742F1204C3
:1006FA008A747012048A746D12048A743A12048A13
:10070A00E5525420B4001274C5917D746112048AB2
:10071A00746D12048AD222801074C5917D7470128D
:10072A00048A746D12048AC22274C5917D20932DA5
:10073A00202215D222746112048A746D12048A006E
:10074A000000003093FD80E1C222747012048A74A2
:10075A006D12048A000000003093FD80CC20922D97
:10076A00202215D222746112048A746D12048A003E
:10077A000000003092FD80B1C222747012048A74A3
:10078A006D12048A000000003092FD809C20B2990C
:10079A00302206E53224408004E5322460F5323006
:0207AA00B2FD9E
:1007AC007401917D7480917D7403918A742012047C
:1007BC008A747312048A746512048A747412048A1B
:1007CC00742012048A746412048A746112048A7488
:1007DC007912048A747312048A743A12048A74C5E6
:1007EC0012047DE553C0E01204A6D0E0C0E074C54D
:1007FC0012047DD0E020931204B4080274013093EB
:10080C00FDC0E01204A6D0E080E220921214B400E5
:10081C000274073092FDC0E01204A6D0E080CD2017
:10082C00B2CAF53330B2FD740112047D7480120427
:10083C007D740312048A742012048A747312048A5D
:10084C00746512048A747412048A742012048A74F3
:10085C006412048A746112048A747412048A7465B2
:10086C0012048A743A12048A74C512047DE5541277
:10087C00043B120D17C0E074C512047DD0E0209328
:10088C001404B4200274013093FD120D0912043BC0
:10089C00120D1780E020921414B40002741F3092D1
:1008AC00FD120D0912043B120D1780C920B2C6129D
:1008BC000D09F53430B2FD740112047D74801204FC
:1008CC007D740312048A742012048A747312048ACD
:1008DC00746512048A747412048A742012048A7463
:1008EC006D12048A746F12048A746E12048A747402
:1008FC0012048A746812048A743A12048A74C51237
:10090C00047DE55512043B120D17C0E074C51204AA
:01091C007D5D
:10091D00D0E020931404B40D0274013093FD120D38
:10092D000912043B120D1780E020921414B400023A
:10093D00740C3092FD120D0912043B120D1780C973
:10094D0020B2C6120D09F53530B2FD740112047DC9
:10095D00748012047D740312048A742012048A7444
:10096D007312048A746512048A747412048A7420D2
:10097D0012048A747912048A746512048A746112DD
:10098D00048A747212048A743A12048A74C51204A9
:10099D007DE55612043B120D17C0E074C512047D9F
:1009AD00D0E020931404B4640274003093FD120D52
:1009BD000912043B120D1780E020921414B4FF02AB
:1009CD0074633092FD120D0912043B120D1780C98C
:1009DD0020B2C630B2FD120D09F5367537007538E7
:1009ED007EC2212230B3FD740112047D7480120485
:1009FD007D740712048A742012048A747312048A97
:100A0D00746512048A747412048A742012048A7430
:100A1D006D12048A746912048A746E12048A7475D4
:100A2D0012048A747412048A746512048A7473121F
:100A3D00048A743A12048A74C512047D7430120447
:100A4D003B120D17C0E074C512047DD0E020931445
:100A5D0004B43C0274003093FD120D0912043B12D4
:100A6D000D1780E020921414B4FF02743B3092FDF8
:100A7D00120D0912043B120D1780C920B3C6120DB9
:0B0A8D0009F55930B3FD740112047D1F
:100A9800748012047D740712048A742012048A7404
:100AA8007312048A746512048A747412048A742096
:100AB80012048A746812048A746F12048A74751294
:100AC800048A747212048A747312048A743A1204BF
:100AD8008A74C512047D7444541F12043B120D1706
:100AE800C0E074C512047DD0E020931404B40D0254
:100AF80074013093FD120D0912043B120D1780E0AA
:100B080020921414B40002740C3092FD120D0912D4
:100B1800043B120D1780C920B3C6120D09F55830D1
:100B2800B3FD740112047D748012047D74071204ED
:100B38008A742012048A747312048A746512048AEF
:100B4800747412048A742012048A746112048A74F8
:100B58006D12048A742F12048A747012048A746DD8
:100B680012048A743A12048A74C512047DE5585432
:100B780020B4200E746112048A746D12048AD22281
:100B8800800C747012048A746D12048AC22274C5AF
:100B980012047D20932D202215D222746112048A1A
:100BA800746D12048A000000003093FD80E0C222B8
:100BB800747012048A746D12048A00000000309365
:100BC800FD80CB20922D202215D222746112048A36
:100BD800746D12048A000000003092FD80B0C222B9
:0E0BE800747012048A746D12048A00000000FA
:100BF6003092FD809B20B39830B3FDE55820220447
:100C060024608004E5582440F55885583985593ABA
:100C16007E0278397909120286740112047D748184
:100C260012047D740412048A742012048A74411218
:100C3600048A746C12048A746112048A747212042F
:100C46008A746D12048A742012048A744F12048AFC
:100C5600746E12048A742112048A74C412047DE527
:100C660058541F12043B743A12048AE55912043B85
:100C7600E5585420B40011742012048A74611204D9
:100C86008A746D12048A800F742012048A7470129A
:100C9600048A746D12048A7F23D28C308DFDC28D36
:100CA600DFF9C28C740112047D120450740212041E
:100CB6008AD224D223C220C22022C2947BFF7CFF88
:100CC600DCFEDBFAD2947BFF7CFFDCFEDBFAC2940F
:100CD6007BFF7CFFDCFEDBFAD2947BFF7CFFDCFE35
:100CE600DBFAC2947BFF7CFFDCFEDBFAD2947BFF4F
:100CF6007CFFDCFEDBFAC2947BFF7CFFDCFEDBFACA
:100D0600D2942275F00A8485F06075F010A42560EF
:100D16002275F0108485F06075F00AA425602230F3
:090D2600313233343536373839E7
:00000001FF
